{
  "_format": "hh-sol-artifact-1",
  "contractName": "SafePurchase",
  "sourceName": "contracts/SafePurchase.sol",
  "abi": [
    {
      "inputs": [
        {
          "internalType": "address",
          "name": "_buyer",
          "type": "address"
        },
        {
          "internalType": "uint256",
          "name": "_price",
          "type": "uint256"
        }
      ],
      "stateMutability": "payable",
      "type": "constructor"
    },
    {
      "inputs": [],
      "name": "InvalidState",
      "type": "error"
    },
    {
      "inputs": [],
      "name": "NoPendingWithdraw",
      "type": "error"
    },
    {
      "inputs": [],
      "name": "OnlyBuyer",
      "type": "error"
    },
    {
      "inputs": [],
      "name": "OnlyMember",
      "type": "error"
    },
    {
      "inputs": [],
      "name": "OnlySeller",
      "type": "error"
    },
    {
      "inputs": [],
      "name": "TransferFailed",
      "type": "error"
    },
    {
      "inputs": [],
      "name": "WrongValue",
      "type": "error"
    },
    {
      "anonymous": false,
      "inputs": [],
      "name": "PurchaseConfirmed",
      "type": "event"
    },
    {
      "anonymous": false,
      "inputs": [],
      "name": "PurchaseReceived",
      "type": "event"
    },
    {
      "anonymous": false,
      "inputs": [],
      "name": "SaleCanceled",
      "type": "event"
    },
    {
      "inputs": [],
      "name": "buyer",
      "outputs": [
        {
          "internalType": "address payable",
          "name": "",
          "type": "address"
        }
      ],
      "stateMutability": "view",
      "type": "function"
    },
    {
      "inputs": [],
      "name": "cancelSale",
      "outputs": [],
      "stateMutability": "nonpayable",
      "type": "function"
    },
    {
      "inputs": [],
      "name": "confirmReceipt",
      "outputs": [],
      "stateMutability": "nonpayable",
      "type": "function"
    },
    {
      "inputs": [
        {
          "internalType": "address",
          "name": "",
          "type": "address"
        }
      ],
      "name": "pendingWithdrawals",
      "outputs": [
        {
          "internalType": "uint256",
          "name": "",
          "type": "uint256"
        }
      ],
      "stateMutability": "view",
      "type": "function"
    },
    {
      "inputs": [],
      "name": "price",
      "outputs": [
        {
          "internalType": "uint256",
          "name": "",
          "type": "uint256"
        }
      ],
      "stateMutability": "view",
      "type": "function"
    },
    {
      "inputs": [],
      "name": "purchase",
      "outputs": [],
      "stateMutability": "payable",
      "type": "function"
    },
    {
      "inputs": [],
      "name": "seller",
      "outputs": [
        {
          "internalType": "address payable",
          "name": "",
          "type": "address"
        }
      ],
      "stateMutability": "view",
      "type": "function"
    },
    {
      "inputs": [],
      "name": "state",
      "outputs": [
        {
          "internalType": "enum SafePurchase.PurchaseState",
          "name": "",
          "type": "uint8"
        }
      ],
      "stateMutability": "view",
      "type": "function"
    },
    {
      "inputs": [],
      "name": "withdraw",
      "outputs": [],
      "stateMutability": "nonpayable",
      "type": "function"
    }
  ],
  "bytecode": "0x6080604052604051620011b5380380620011b58339818101604052810190620000299190620001d4565b6002816200003891906200024a565b341462000071576040517f98d4901c00000000000000000000000000000000000000000000000000000000815260040160405180910390fd5b336000806101000a81548173ffffffffffffffffffffffffffffffffffffffff021916908373ffffffffffffffffffffffffffffffffffffffff16021790555081600160006101000a81548173ffffffffffffffffffffffffffffffffffffffff021916908373ffffffffffffffffffffffffffffffffffffffff160217905550806002819055506000600360006101000a81548160ff0219169083600481111562000122576200012162000295565b5b02179055505050620002c4565b600080fd5b600073ffffffffffffffffffffffffffffffffffffffff82169050919050565b6000620001618262000134565b9050919050565b620001738162000154565b81146200017f57600080fd5b50565b600081519050620001938162000168565b92915050565b6000819050919050565b620001ae8162000199565b8114620001ba57600080fd5b50565b600081519050620001ce81620001a3565b92915050565b60008060408385031215620001ee57620001ed6200012f565b5b6000620001fe8582860162000182565b92505060206200021185828601620001bd565b9150509250929050565b7f4e487b7100000000000000000000000000000000000000000000000000000000600052601160045260246000fd5b6000620002578262000199565b9150620002648362000199565b9250828202620002748162000199565b915082820484148315176200028e576200028d6200021b565b5b5092915050565b7f4e487b7100000000000000000000000000000000000000000000000000000000600052602160045260246000fd5b610ee180620002d46000396000f3fe6080604052600436106100865760003560e01c80637d94ad98116100595780637d94ad9814610102578063a035b1fe14610119578063c19d93fb14610144578063e7e104901461016f578063f3f437031461018657610086565b806308551a531461008b5780633ccfd60b146100b657806364edfbf0146100cd5780637150d8ae146100d7575b600080fd5b34801561009757600080fd5b506100a06101c3565b6040516100ad9190610ca3565b60405180910390f35b3480156100c257600080fd5b506100cb6101e7565b005b6100d561069b565b005b3480156100e357600080fd5b506100ec610830565b6040516100f99190610ca3565b60405180910390f35b34801561010e57600080fd5b50610117610856565b005b34801561012557600080fd5b5061012e610a80565b60405161013b9190610cd7565b60405180910390f35b34801561015057600080fd5b50610159610a86565b6040516101669190610d69565b60405180910390f35b34801561017b57600080fd5b50610184610a99565b005b34801561019257600080fd5b506101ad60048036038101906101a89190610dc7565b610c4a565b6040516101ba9190610cd7565b60405180910390f35b60008054906101000a900473ffffffffffffffffffffffffffffffffffffffff1681565b600160009054906101000a900473ffffffffffffffffffffffffffffffffffffffff1673ffffffffffffffffffffffffffffffffffffffff163373ffffffffffffffffffffffffffffffffffffffff1614158015610291575060008054906101000a900473ffffffffffffffffffffffffffffffffffffffff1673ffffffffffffffffffffffffffffffffffffffff163373ffffffffffffffffffffffffffffffffffffffff1614155b156102c8576040517f4a0f278800000000000000000000000000000000000000000000000000000000815260040160405180910390fd5b600260048111156102dc576102db610cf2565b5b600360009054906101000a900460ff1660048111156102fe576102fd610cf2565b5b1415801561034057506003600481111561031b5761031a610cf2565b5b600360009054906101000a900460ff16600481111561033d5761033c610cf2565b5b14155b15610377576040517fbaf3f0f700000000000000000000000000000000000000000000000000000000815260040160405180910390fd5b6003600481111561038b5761038a610cf2565b5b600360009054906101000a900460ff1660048111156103ad576103ac610cf2565b5b148015610406575060008054906101000a900473ffffffffffffffffffffffffffffffffffffffff1673ffffffffffffffffffffffffffffffffffffffff163373ffffffffffffffffffffffffffffffffffffffff1614155b1561043d576040517f85d1f72600000000000000000000000000000000000000000000000000000000815260040160405180910390fd5b6000600460003373ffffffffffffffffffffffffffffffffffffffff1673ffffffffffffffffffffffffffffffffffffffff168152602001908152602001600020549050600081036104bb576040517ff6fc7daa00000000000000000000000000000000000000000000000000000000815260040160405180910390fd5b6000600460003373ffffffffffffffffffffffffffffffffffffffff1673ffffffffffffffffffffffffffffffffffffffff16815260200190815260200160002081905550600460008060009054906101000a900473ffffffffffffffffffffffffffffffffffffffff1673ffffffffffffffffffffffffffffffffffffffff1673ffffffffffffffffffffffffffffffffffffffff1681526020019081526020016000205460046000600160009054906101000a900473ffffffffffffffffffffffffffffffffffffffff1673ffffffffffffffffffffffffffffffffffffffff1673ffffffffffffffffffffffffffffffffffffffff16815260200190815260200160002054036105f4576004600360006101000a81548160ff021916908360048111156105ee576105ed610cf2565b5b02179055505b60003373ffffffffffffffffffffffffffffffffffffffff168260405161061a90610e25565b60006040518083038185875af1925050503d8060008114610657576040519150601f19603f3d011682016040523d82523d6000602084013e61065c565b606091505b5050905080610697576040517f90b8ec1800000000000000000000000000000000000000000000000000000000815260040160405180910390fd5b5050565b600160009054906101000a900473ffffffffffffffffffffffffffffffffffffffff1673ffffffffffffffffffffffffffffffffffffffff163373ffffffffffffffffffffffffffffffffffffffff1614610722576040517f86efbb5500000000000000000000000000000000000000000000000000000000815260040160405180910390fd5b600080600481111561073757610736610cf2565b5b600360009054906101000a900460ff16600481111561075957610758610cf2565b5b14610790576040517fbaf3f0f700000000000000000000000000000000000000000000000000000000815260040160405180910390fd5b6002805461079e9190610e69565b34146107d6576040517f98d4901c00000000000000000000000000000000000000000000000000000000815260040160405180910390fd5b7fd5d55c8a68912e9a110618df8d5e2e83b8d83211c57a8ddd1203df92885dc88160405160405180910390a16001600360006101000a81548160ff0219169083600481111561082857610827610cf2565b5b021790555050565b600160009054906101000a900473ffffffffffffffffffffffffffffffffffffffff1681565b600160009054906101000a900473ffffffffffffffffffffffffffffffffffffffff1673ffffffffffffffffffffffffffffffffffffffff163373ffffffffffffffffffffffffffffffffffffffff16146108dd576040517f86efbb5500000000000000000000000000000000000000000000000000000000815260040160405180910390fd5b60018060048111156108f2576108f1610cf2565b5b600360009054906101000a900460ff16600481111561091457610913610cf2565b5b1461094b576040517fbaf3f0f700000000000000000000000000000000000000000000000000000000815260040160405180910390fd5b7f59a67d56d47b74fa43cf5987cf9fce6ca330dd234de60481feb0f744819ac77260405160405180910390a16002600360006101000a81548160ff0219169083600481111561099d5761099c610cf2565b5b021790555060025460046000600160009054906101000a900473ffffffffffffffffffffffffffffffffffffffff1673ffffffffffffffffffffffffffffffffffffffff1673ffffffffffffffffffffffffffffffffffffffff168152602001908152602001600020819055506003600254610a199190610e69565b600460008060009054906101000a900473ffffffffffffffffffffffffffffffffffffffff1673ffffffffffffffffffffffffffffffffffffffff1673ffffffffffffffffffffffffffffffffffffffff1681526020019081526020016000208190555050565b60025481565b600360009054906101000a900460ff1681565b60008054906101000a900473ffffffffffffffffffffffffffffffffffffffff1673ffffffffffffffffffffffffffffffffffffffff163373ffffffffffffffffffffffffffffffffffffffff1614610b1e576040517f85d1f72600000000000000000000000000000000000000000000000000000000815260040160405180910390fd5b6000806004811115610b3357610b32610cf2565b5b600360009054906101000a900460ff166004811115610b5557610b54610cf2565b5b14610b8c576040517fbaf3f0f700000000000000000000000000000000000000000000000000000000815260040160405180910390fd5b7f0943552b21b3bcfb11bcb560653f2703faf49c76ac2a791e285b130c0117678a60405160405180910390a160038060006101000a81548160ff02191690836004811115610bdd57610bdc610cf2565b5b021790555047600460008060009054906101000a900473ffffffffffffffffffffffffffffffffffffffff1673ffffffffffffffffffffffffffffffffffffffff1673ffffffffffffffffffffffffffffffffffffffff1681526020019081526020016000208190555050565b60046020528060005260406000206000915090505481565b600073ffffffffffffffffffffffffffffffffffffffff82169050919050565b6000610c8d82610c62565b9050919050565b610c9d81610c82565b82525050565b6000602082019050610cb86000830184610c94565b92915050565b6000819050919050565b610cd181610cbe565b82525050565b6000602082019050610cec6000830184610cc8565b92915050565b7f4e487b7100000000000000000000000000000000000000000000000000000000600052602160045260246000fd5b60058110610d3257610d31610cf2565b5b50565b6000819050610d4382610d21565b919050565b6000610d5382610d35565b9050919050565b610d6381610d48565b82525050565b6000602082019050610d7e6000830184610d5a565b92915050565b600080fd5b6000610d9482610c62565b9050919050565b610da481610d89565b8114610daf57600080fd5b50565b600081359050610dc181610d9b565b92915050565b600060208284031215610ddd57610ddc610d84565b5b6000610deb84828501610db2565b91505092915050565b600081905092915050565b50565b6000610e0f600083610df4565b9150610e1a82610dff565b600082019050919050565b6000610e3082610e02565b9150819050919050565b7f4e487b7100000000000000000000000000000000000000000000000000000000600052601160045260246000fd5b6000610e7482610cbe565b9150610e7f83610cbe565b9250828202610e8d81610cbe565b91508282048414831517610ea457610ea3610e3a565b5b509291505056fea2646970667358221220579cf420cc806944762d37093cd94a703f14509e467f40bc3dedf61476b574c864736f6c63430008180033",
  "linkReferences": {},
  "deployedLinkReferences": {}
}